{
    "address": "0xAF406f95365C45945F64aF3D7108fb0C665BBa26",
    "abi": [
        {
            "inputs": [
                {
                    "internalType": "address",
                    "name": "priceFeedAddress",
                    "type": "address"
                }
            ],
            "stateMutability": "nonpayable",
            "type": "constructor"
        },
        {
            "inputs": [],
            "name": "FundMe__NotOwner",
            "type": "error"
        },
        {
            "stateMutability": "payable",
            "type": "fallback"
        },
        {
            "inputs": [],
            "name": "MINIMUM_USD",
            "outputs": [
                {
                    "internalType": "uint256",
                    "name": "",
                    "type": "uint256"
                }
            ],
            "stateMutability": "view",
            "type": "function"
        },
        {
            "inputs": [],
            "name": "cheapWithdraw",
            "outputs": [],
            "stateMutability": "payable",
            "type": "function"
        },
        {
            "inputs": [],
            "name": "fund",
            "outputs": [],
            "stateMutability": "payable",
            "type": "function"
        },
        {
            "inputs": [],
            "name": "getPriceFeed",
            "outputs": [
                {
                    "internalType": "contract AggregatorV3Interface",
                    "name": "",
                    "type": "address"
                }
            ],
            "stateMutability": "view",
            "type": "function"
        },
        {
            "inputs": [],
            "name": "i_owner",
            "outputs": [
                {
                    "internalType": "address",
                    "name": "",
                    "type": "address"
                }
            ],
            "stateMutability": "view",
            "type": "function"
        },
        {
            "inputs": [
                {
                    "internalType": "address",
                    "name": "",
                    "type": "address"
                }
            ],
            "name": "s_addressToAmountFunded",
            "outputs": [
                {
                    "internalType": "uint256",
                    "name": "",
                    "type": "uint256"
                }
            ],
            "stateMutability": "view",
            "type": "function"
        },
        {
            "inputs": [
                {
                    "internalType": "uint256",
                    "name": "",
                    "type": "uint256"
                }
            ],
            "name": "s_funders",
            "outputs": [
                {
                    "internalType": "address",
                    "name": "",
                    "type": "address"
                }
            ],
            "stateMutability": "view",
            "type": "function"
        },
        {
            "inputs": [],
            "name": "s_priceFeed",
            "outputs": [
                {
                    "internalType": "contract AggregatorV3Interface",
                    "name": "",
                    "type": "address"
                }
            ],
            "stateMutability": "view",
            "type": "function"
        },
        {
            "inputs": [],
            "name": "withdraw",
            "outputs": [],
            "stateMutability": "nonpayable",
            "type": "function"
        },
        {
            "stateMutability": "payable",
            "type": "receive"
        }
    ],
    "transactionHash": "0x810bd0cc63d264154c5cae06f2205f8de98516774fd0379ef952f8050827cdb3",
    "args": [
        "0x694AA1769357215DE4FAC081bf1f309aDC325306"
    ],
    "numDeployments": 3,
    "solcInputHash": "3713fef8db122ee312d5a4350b2c9cfe",
    "bytecode": "0x60806040523480156200001157600080fd5b50604051620016c2380380620016c283398181016040528101906200003791906200028c565b620000826040518060400160405280600e81526020017f696e20636f6e7374727563746f720000000000000000000000000000000000008152506200015660201b620009121760201c565b33600260006101000a81548173ffffffffffffffffffffffffffffffffffffffff021916908373ffffffffffffffffffffffffffffffffffffffff1602179055506200010e6040518060400160405280601281526020017f676574207072696365466565642e2e2e2e2e00000000000000000000000000008152506200015660201b620009121760201c565b80600360006101000a81548173ffffffffffffffffffffffffffffffffffffffff021916908373ffffffffffffffffffffffffffffffffffffffff1602179055505062000386565b620001f6816040516024016200016d919062000362565b6040516020818303038152906040527f41304fac000000000000000000000000000000000000000000000000000000007bffffffffffffffffffffffffffffffffffffffffffffffffffffffff19166020820180517bffffffffffffffffffffffffffffffffffffffffffffffffffffffff8381831617835250505050620001f960201b60201c565b50565b60008151905060006a636f6e736f6c652e6c6f679050602083016000808483855afa5050505050565b600080fd5b600073ffffffffffffffffffffffffffffffffffffffff82169050919050565b6000620002548262000227565b9050919050565b620002668162000247565b81146200027257600080fd5b50565b60008151905062000286816200025b565b92915050565b600060208284031215620002a557620002a462000222565b5b6000620002b58482850162000275565b91505092915050565b600081519050919050565b600082825260208201905092915050565b60005b83811015620002fa578082015181840152602081019050620002dd565b838111156200030a576000848401525b50505050565b6000601f19601f8301169050919050565b60006200032e82620002be565b6200033a8185620002c9565b93506200034c818560208601620002da565b620003578162000310565b840191505092915050565b600060208201905081810360008301526200037e818462000321565b905092915050565b61132c80620003966000396000f3fe60806040526004361061008a5760003560e01c806354861af71161005957806354861af71461012c5780636b69a592146101695780639e87a5cd14610194578063b60d4288146101bf578063dba6335f146101c957610099565b80630ec3b027146100a35780631bf6132d146100ce578063206ddccd1461010b5780633ccfd60b1461011557610099565b36610099576100976101f4565b005b6100a16101f4565b005b3480156100af57600080fd5b506100b861032e565b6040516100c59190610bd6565b60405180910390f35b3480156100da57600080fd5b506100f560048036038101906100f09190610c34565b610354565b6040516101029190610c7a565b60405180910390f35b61011361036c565b005b34801561012157600080fd5b5061012a610634565b005b34801561013857600080fd5b50610153600480360381019061014e9190610cc1565b610876565b6040516101609190610cfd565b60405180910390f35b34801561017557600080fd5b5061017e6108b5565b60405161018b9190610c7a565b60405180910390f35b3480156101a057600080fd5b506101a96108c2565b6040516101b69190610bd6565b60405180910390f35b6101c76101f4565b005b3480156101d557600080fd5b506101de6108ec565b6040516101eb9190610cfd565b60405180910390f35b6802b5e3af16b1880000610233600360009054906101000a900473ffffffffffffffffffffffffffffffffffffffff16346109ab90919063ffffffff16565b1015610274576040517f08c379a000000000000000000000000000000000000000000000000000000000815260040161026b90610d75565b60405180910390fd5b346000803373ffffffffffffffffffffffffffffffffffffffff1673ffffffffffffffffffffffffffffffffffffffff16815260200190815260200160002060008282546102c29190610dc4565b925050819055506001339080600181540180825580915050600190039060005260206000200160009091909190916101000a81548173ffffffffffffffffffffffffffffffffffffffff021916908373ffffffffffffffffffffffffffffffffffffffff160217905550565b600360009054906101000a900473ffffffffffffffffffffffffffffffffffffffff1681565b60006020528060005260406000206000915090505481565b600260009054906101000a900473ffffffffffffffffffffffffffffffffffffffff1673ffffffffffffffffffffffffffffffffffffffff163373ffffffffffffffffffffffffffffffffffffffff16146103f3576040517f579610db00000000000000000000000000000000000000000000000000000000815260040160405180910390fd5b6000600180548060200260200160405190810160405280929190818152602001828054801561047757602002820191906000526020600020905b8160009054906101000a900473ffffffffffffffffffffffffffffffffffffffff1673ffffffffffffffffffffffffffffffffffffffff168152602001906001019080831161042d575b5050505050905060005b815181101561050157600082828151811061049f5761049e610e1a565b5b6020026020010151905060008060008373ffffffffffffffffffffffffffffffffffffffff1673ffffffffffffffffffffffffffffffffffffffff168152602001908152602001600020819055505080806104f990610e49565b915050610481565b50600067ffffffffffffffff81111561051d5761051c610e92565b5b60405190808252806020026020018201604052801561054b5781602001602082028036833780820191505090505b5060019080519060200190610561929190610ab0565b506000600260009054906101000a900473ffffffffffffffffffffffffffffffffffffffff1673ffffffffffffffffffffffffffffffffffffffff16476040516105aa90610ef2565b60006040518083038185875af1925050503d80600081146105e7576040519150601f19603f3d011682016040523d82523d6000602084013e6105ec565b606091505b5050905080610630576040517f08c379a000000000000000000000000000000000000000000000000000000000815260040161062790610f53565b60405180910390fd5b5050565b600260009054906101000a900473ffffffffffffffffffffffffffffffffffffffff1673ffffffffffffffffffffffffffffffffffffffff163373ffffffffffffffffffffffffffffffffffffffff16146106bb576040517f579610db00000000000000000000000000000000000000000000000000000000815260040160405180910390fd5b60005b600180549050811015610766576000600182815481106106e1576106e0610e1a565b5b9060005260206000200160009054906101000a900473ffffffffffffffffffffffffffffffffffffffff16905060008060008373ffffffffffffffffffffffffffffffffffffffff1673ffffffffffffffffffffffffffffffffffffffff1681526020019081526020016000208190555050808061075e90610e49565b9150506106be565b50600067ffffffffffffffff81111561078257610781610e92565b5b6040519080825280602002602001820160405280156107b05781602001602082028036833780820191505090505b50600190805190602001906107c6929190610ab0565b5060003373ffffffffffffffffffffffffffffffffffffffff16476040516107ed90610ef2565b60006040518083038185875af1925050503d806000811461082a576040519150601f19603f3d011682016040523d82523d6000602084013e61082f565b606091505b5050905080610873576040517f08c379a000000000000000000000000000000000000000000000000000000000815260040161086a90610f53565b60405180910390fd5b50565b6001818154811061088657600080fd5b906000526020600020016000915054906101000a900473ffffffffffffffffffffffffffffffffffffffff1681565b6802b5e3af16b188000081565b6000600360009054906101000a900473ffffffffffffffffffffffffffffffffffffffff16905090565b600260009054906101000a900473ffffffffffffffffffffffffffffffffffffffff1681565b6109a8816040516024016109269190610ffb565b6040516020818303038152906040527f41304fac000000000000000000000000000000000000000000000000000000007bffffffffffffffffffffffffffffffffffffffffffffffffffffffff19166020820180517bffffffffffffffffffffffffffffffffffffffffffffffffffffffff83818316178352505050506109e7565b50565b6000806109b783610a10565b90506000670de0b6b3a764000085836109d0919061101d565b6109da91906110a6565b9050809250505092915050565b60008151905060006a636f6e736f6c652e6c6f679050602083016000808483855afa5050505050565b6000808273ffffffffffffffffffffffffffffffffffffffff1663feaf968c6040518163ffffffff1660e01b815260040160a06040518083038186803b158015610a5957600080fd5b505afa158015610a6d573d6000803e3d6000fd5b505050506040513d601f19601f82011682018060405250810190610a919190611164565b5050509150506402540be40081610aa891906111df565b915050919050565b828054828255906000526020600020908101928215610b29579160200282015b82811115610b285782518260006101000a81548173ffffffffffffffffffffffffffffffffffffffff021916908373ffffffffffffffffffffffffffffffffffffffff16021790555091602001919060010190610ad0565b5b509050610b369190610b3a565b5090565b5b80821115610b53576000816000905550600101610b3b565b5090565b600073ffffffffffffffffffffffffffffffffffffffff82169050919050565b6000819050919050565b6000610b9c610b97610b9284610b57565b610b77565b610b57565b9050919050565b6000610bae82610b81565b9050919050565b6000610bc082610ba3565b9050919050565b610bd081610bb5565b82525050565b6000602082019050610beb6000830184610bc7565b92915050565b600080fd5b6000610c0182610b57565b9050919050565b610c1181610bf6565b8114610c1c57600080fd5b50565b600081359050610c2e81610c08565b92915050565b600060208284031215610c4a57610c49610bf1565b5b6000610c5884828501610c1f565b91505092915050565b6000819050919050565b610c7481610c61565b82525050565b6000602082019050610c8f6000830184610c6b565b92915050565b610c9e81610c61565b8114610ca957600080fd5b50565b600081359050610cbb81610c95565b92915050565b600060208284031215610cd757610cd6610bf1565b5b6000610ce584828501610cac565b91505092915050565b610cf781610bf6565b82525050565b6000602082019050610d126000830184610cee565b92915050565b600082825260208201905092915050565b7f596f75206e65656420746f207370656e64206d6f726520455448210000000000600082015250565b6000610d5f601b83610d18565b9150610d6a82610d29565b602082019050919050565b60006020820190508181036000830152610d8e81610d52565b9050919050565b7f4e487b7100000000000000000000000000000000000000000000000000000000600052601160045260246000fd5b6000610dcf82610c61565b9150610dda83610c61565b9250827fffffffffffffffffffffffffffffffffffffffffffffffffffffffffffffffff03821115610e0f57610e0e610d95565b5b828201905092915050565b7f4e487b7100000000000000000000000000000000000000000000000000000000600052603260045260246000fd5b6000610e5482610c61565b91507fffffffffffffffffffffffffffffffffffffffffffffffffffffffffffffffff821415610e8757610e86610d95565b5b600182019050919050565b7f4e487b7100000000000000000000000000000000000000000000000000000000600052604160045260246000fd5b600081905092915050565b50565b6000610edc600083610ec1565b9150610ee782610ecc565b600082019050919050565b6000610efd82610ecf565b9150819050919050565b7f43616c6c206661696c6564000000000000000000000000000000000000000000600082015250565b6000610f3d600b83610d18565b9150610f4882610f07565b602082019050919050565b60006020820190508181036000830152610f6c81610f30565b9050919050565b600081519050919050565b60005b83811015610f9c578082015181840152602081019050610f81565b83811115610fab576000848401525b50505050565b6000601f19601f8301169050919050565b6000610fcd82610f73565b610fd78185610d18565b9350610fe7818560208601610f7e565b610ff081610fb1565b840191505092915050565b600060208201905081810360008301526110158184610fc2565b905092915050565b600061102882610c61565b915061103383610c61565b9250817fffffffffffffffffffffffffffffffffffffffffffffffffffffffffffffffff048311821515161561106c5761106b610d95565b5b828202905092915050565b7f4e487b7100000000000000000000000000000000000000000000000000000000600052601260045260246000fd5b60006110b182610c61565b91506110bc83610c61565b9250826110cc576110cb611077565b5b828204905092915050565b600069ffffffffffffffffffff82169050919050565b6110f6816110d7565b811461110157600080fd5b50565b600081519050611113816110ed565b92915050565b6000819050919050565b61112c81611119565b811461113757600080fd5b50565b60008151905061114981611123565b92915050565b60008151905061115e81610c95565b92915050565b600080600080600060a086880312156111805761117f610bf1565b5b600061118e88828901611104565b955050602061119f8882890161113a565b94505060406111b08882890161114f565b93505060606111c18882890161114f565b92505060806111d288828901611104565b9150509295509295909350565b60006111ea82611119565b91506111f583611119565b9250827f7fffffffffffffffffffffffffffffffffffffffffffffffffffffffffffffff048211600084136000841316161561123457611233610d95565b5b817f8000000000000000000000000000000000000000000000000000000000000000058312600084126000841316161561127157611270610d95565b5b827f800000000000000000000000000000000000000000000000000000000000000005821260008413600084121616156112ae576112ad610d95565b5b827f7fffffffffffffffffffffffffffffffffffffffffffffffffffffffffffffff05821260008412600084121616156112eb576112ea610d95565b5b82820290509291505056fea264697066735822122024f982b9b72a6a8ca8feeb508256809d4846dca257c7a6335068e9d577f0fc9f64736f6c63430008080033",
    "devdoc": {
        "kind": "dev",
        "methods": {},
        "version": 1
    },
    "userdoc": {
        "kind": "user",
        "methods": {},
        "version": 1
    },
    "storageLayout": {
        "storage": [
            {
                "astId": 59,
                "contract": "contracts/FundMe.sol:FundMe",
                "label": "s_addressToAmountFunded",
                "offset": 0,
                "slot": "0",
                "type": "t_mapping(t_address,t_uint256)"
            },
            {
                "astId": 62,
                "contract": "contracts/FundMe.sol:FundMe",
                "label": "s_funders",
                "offset": 0,
                "slot": "1",
                "type": "t_array(t_address)dyn_storage"
            },
            {
                "astId": 64,
                "contract": "contracts/FundMe.sol:FundMe",
                "label": "i_owner",
                "offset": 0,
                "slot": "2",
                "type": "t_address"
            },
            {
                "astId": 74,
                "contract": "contracts/FundMe.sol:FundMe",
                "label": "s_priceFeed",
                "offset": 0,
                "slot": "3",
                "type": "t_contract(AggregatorV3Interface)45"
            }
        ],
        "types": {
            "t_address": {
                "encoding": "inplace",
                "label": "address",
                "numberOfBytes": "20"
            },
            "t_array(t_address)dyn_storage": {
                "base": "t_address",
                "encoding": "dynamic_array",
                "label": "address[]",
                "numberOfBytes": "32"
            },
            "t_contract(AggregatorV3Interface)45": {
                "encoding": "inplace",
                "label": "contract AggregatorV3Interface",
                "numberOfBytes": "20"
            },
            "t_mapping(t_address,t_uint256)": {
                "encoding": "mapping",
                "key": "t_address",
                "label": "mapping(address => uint256)",
                "numberOfBytes": "32",
                "value": "t_uint256"
            },
            "t_uint256": {
                "encoding": "inplace",
                "label": "uint256",
                "numberOfBytes": "32"
            }
        }
    }
}